:100000000C9434000C9451000C9451000C94510049
:100010000C9451000C9451000C9451000C9451001C
:100020000C9451000C9451000C9451000C9451000C
:100030000C9451000C9451000C9451000C945100FC
:100040000C9451000C9451000C94A8000C94710075
:100050000C9451000C9451000C9451000C945100DC
:100060000C9451000C94510011241FBECFEFD8E026
:10007000DEBFCDBF11E0A0E0B1E0E4E9F4E002C0F2
:1000800005900D92A832B107D9F725E0A8E2B1E0BA
:1000900001C01D92AE32B207E1F70E944F010C94ED
:1000A00048020C940000FC0180818A3059F0DB0189
:1000B000319603C081918A3029F09D919817D1F330
:1000C00080E0089581E008951092C50083E3809355
:1000D000C40086E08093C20088E98093C1007894D0
:1000E00008958F938FB78F939F93EF93FF93909182
:1000F0002B0380912A039817A1F0E0912B03F0E0E5
:10010000E45DFC4F80818093C60080912B038F5F5C
:1001100080932B03FF91EF919F918F918FBF8F91D0
:1001200018958091C1008F7D8093C100F3CFE0913D
:100130002A03F0E0E45DFC4F808380912A038F5F07
:1001400080932A03E1ECF0E080818062808308954F
:100150008F938FB78F93EF93FF93E0912D04F0E08F
:100160008091C600E25DFB4F808380912D048F5FFC
:1001700080932D04FF91EF918F918FBF8F911895F0
:1001800090912C0480912D04981761F0E0912C043B
:10019000F0E0E25DFB4F808190912C049F5F909393
:1001A0002C04089580E00895CF93DF939C01DC0137
:1001B00080912D0490912C04981307C088959091FC
:1001C0002D0480912C049817C9F390912C048091F0
:1001D0002D04ED0121969817C1F0E0912C04F0E078
:1001E000E25DFB4F908180912C048F5F80932C0403
:1001F0009C939A30C1F09D30B1F0CE01821B930BDD
:10020000843C91054CF4DE01D3CF1C92CE01821BBD
:10021000930B843C9105BCF31982CD010296821B9D
:10022000DF91CF91089512961C921297CD010296FC
:10023000821BDF91CF910895DC018C918115A1F093
:100240001196E0912A03F0E0E45DFC4F80838091F9
:100250002A038F5F80932A038091C100806280937C
:10026000C1008D918111EDCF0895FC01DB018081EA
:100270008A3039F0319691E889278D9381918A30BF
:10028000D9F70895FC01DB0180818A3039F031967D
:1002900091E889278D9381918A30D9F708950E943A
:1002A0006400D0E08091290390E0885D9D4F0E941A
:1002B000D400C82F90912903892F90E060E071E06D
:1002C000885D9D4F0E94530081110BC080912903CE
:1002D0008C0F80932903DF5FD33021F781E090E01A
:1002E000089584E291E00E941C018FE39CE901974C
:1002F000F1F700C000001DC0E0912903F0E0E85DC7
:10030000FD4F8081833451F1E0912903F0E0E85DF5
:10031000FD4F8081843411F18AE091E00E941C013C
:100320002FEF80E792E0215080409040E1F700C03D
:1003300000008091290390E0885D9D4F0E94D400C9
:10034000C82F8091290390E065E071E0885D9D4FA2
:100350000E94530081118CC0C33071F68091290333
:100360008C0F80932903E0912903F0E0E85DFD4FB5
:100370008081833439F560C060912803809129031E
:1003800070E0685D7E4F90E0885D9D4F0E94420165
:10039000809129038C53809329038091280390E056
:1003A000885D9E4F0E941C01809128038C5380938E
:1003B00028032FEF80E792E0215080409040E1F742
:1003C00000C000008091290390E0885D9D4F0E944D
:1003D000D400C82F843C81F2809129038C0F809334
:1003E00029038091280390E0885D9E4F0E941C01A4
:1003F000809128038C0F809328032FEF80E792E0F1
:10040000215080409040E1F700C0000089CF0E9459
:100410003501809129038C5380932903809128030F
:100420008C53809328032FEF80E792E02150804087
:100430009040E1F700C000008091290390E0885DC2
:100440009D4F0E94D400C82F6091280380912903FA
:1004500070E0685D7E4F90E0885D9D4FC43CB9F2CE
:100460000E943501809129038C0F80932903C0CF0E
:100470008EE191E00E941C012FEF80E792E0215075
:1004800080409040E1F700C0000080E090E00895D7
:04049000F894FFCF0E
:10049400313233343553544F50004E4F54204120A1
:1004A40056414C4944204F5054494F4E0A00464946
:0804B4004E450A004F4B0A00FF
:00000001FF
