:100000000C9434000C9451000C9451000C94510049
:100010000C9451000C9451000C9451000C9451001C
:100020000C9451000C9451000C9451000C9451000C
:100030000C9451000C9451000C9451000C945100FC
:100040000C9451000C9451000C94A8000C94710075
:100050000C9451000C9451000C9451000C945100DC
:100060000C9451000C94510011241FBECFEFD8E026
:10007000DEBFCDBF11E0A0E0B1E0E6EFF3E002C0EB
:1000800005900D92A832B107D9F724E0A8E2B1E0BB
:1000900001C01D92AC32B207E1F70E943E010C9400
:1000A000F9010C940000FC0180818A3059F0DB01D9
:1000B000319603C081918A3029F09D919817D1F330
:1000C00080E0089581E008951092C50083E3809355
:1000D000C40086E08093C20088E98093C1007894D0
:1000E00008958F938FB78F939F93EF93FF93909182
:1000F0002902809128029817A1F0E0912902F0E0EE
:10010000E65DFD4F80818093C600809129028F5F5C
:1001100080932902FF91EF919F918F918FBF8F91D3
:1001200018958091C1008F7D8093C100F3CFE0913D
:100130002802F0E0E65DFD4F8083809128028F5F0A
:1001400080932802E1ECF0E0808180628083089552
:100150008F938FB78F93EF93FF93E0912B03F0E092
:100160008091C600E45DFC4F808380912B038F5FFC
:1001700080932B03FF91EF918F918FBF8F911895F3
:1001800090912A0380912B03981761F0E0912A0344
:10019000F0E0E45DFC4F808190912A039F5F909393
:1001A0002A03089580E00895CF93DF939C01FC011A
:1001B00001C0889590912B0380912A039817C9F369
:1001C00090912A0380912B03EF0121969817D1F08B
:1001D000A0912A03B0E0A45DBC4F8C9190912A03BA
:1001E0009F5F90932A038083811569F08A3081F0A4
:1001F0008D3071F0CE01821B930B843C91052CF461
:10020000FE01D8CF10828C2F821BDF91CF910895F1
:100210001882CF010296821BDF91CF910895DC01F5
:100220008C918115A1F01196E0912802F0E0E65D35
:10023000FD4F8083809128028F5F809328028091F8
:10024000C10080628093C1008D918111EDCF08952E
:10025000FC0180818A3031F091E889278193808187
:100260008A30D9F70895FC0180818A3031F091E815
:100270008927819380818A30D9F708950E9464008C
:10028000C0E08FE39CE90197F1F700C0000088E22D
:1002900091E00E94D40060E071E088E291E00E9469
:1002A0005300811106C0CF5FC33059F781E090E061
:1002B000089584E291E00E940F018FE39CE9019789
:1002C000F1F700C000000DC08AE091E00E940F012C
:1002D0009FEF20E782E0915020408040E1F700C08E
:1002E000000088E291E00E94D400C82F65E071E030
:1002F00088E291E00E94530081116BC0C33021F766
:10030000809128018334D9F44CC09FEF20E782E02C
:10031000915020408040E1F700C0000088E291E069
:100320000E94330188E291E00E940F019FEF20E7D5
:1003300082E0915020408040E1F700C0000088E258
:1003400091E00E94D400843C01F39FEF20E782E01B
:10035000915020408040E1F700C0000088E291E029
:100360000E94330188E291E00E940F01B1CF9FEF1C
:1003700020E782E0915020408040E1F700C000007B
:1003800088E291E00E94280188E291E00E940F013A
:100390009FEF20E782E0915020408040E1F700C0CD
:1003A000000088E291E00E94D400843C01F39FEFBA
:1003B00020E782E0915020408040E1F700C000003B
:1003C00088E291E00E94280188E291E00E940F01FA
:1003D0007FCF8EE191E00E940F019FEF20E782E046
:1003E000915020408040E1F700C0000080E090E0A4
:0603F0000895F894FFCF10
:1003F600313233343553544F50004E4F5420412040
:1004060056414C4944204F5054494F4E0A004649E4
:080416004E450A004F4B0A009D
:00000001FF
