:100000000C9434000C9451000C9451000C94510049
:100010000C9451000C9451000C9451000C9451001C
:100020000C9451000C9451000C9451000C9451000C
:100030000C9451000C9451000C9451000C945100FC
:100040000C9451000C9451000C94A8000C94710075
:100050000C9451000C9451000C9451000C945100DC
:100060000C9451000C94510011241FBECFEFD8E026
:10007000DEBFCDBF11E0A0E0B1E0EEE7F4E002C0EA
:1000800005900D92A832B107D9F723E0A8E2B1E0BC
:1000900001C01D92AC32B207E1F70E9490010C94AE
:1000A0003D020C940000FC0180818A3059F0DB0194
:1000B000319603C081918A3029F09D919817D1F330
:1000C00080E0089581E008951092C50083E3809355
:1000D000C40086E08093C20088E98093C1007894D0
:1000E00008958F938FB78F939F93EF93FF93909182
:1000F0002901809128019817A1F0E0912901F0E0F1
:10010000E65DFE4F80818093C600809129018F5F5C
:1001100080932901FF91EF919F918F918FBF8F91D4
:1001200018958091C1008F7D8093C100F3CFE0913D
:100130002801F0E0E65DFE4F8083809128018F5F0B
:1001400080932801E1ECF0E0808180628083089553
:100150008F938FB78F939F93EF93FF9380912B0291
:100160008F5F90912A02981751F0E0912B02F0E0F6
:100170009091C600E45DFD4F908380932B02FF9128
:10018000EF919F918F918FBF8F911895F8949091D7
:100190002A0280912B02981769F0E0912A02F0E080
:1001A000E45DFD4F808190912A029F5F90932A0227
:1001B00078940895789480E00895CF93DF939C011C
:1001C000611131C04FEFD90150E001C08895909185
:1001D0002B0280912A029817C9F3F89490912A0271
:1001E00080912B02ED012196981709F43DC0E09112
:1001F0002A02F0E0E45DFD4F908180912A028F5F3A
:1002000080932A0278949C93611104C09A3079F10A
:100210009D3069F1CE01821B930B8417950704F57D
:10022000DE01D5CF889590912B0280912A029817F4
:10023000C9F3F89490912A0280912B029817F1F05B
:10024000E0912A02F0E0E45DFD4F408180912A02B6
:100250008F5F80932A0278944111B5CFE90180E045
:100260001882DF91CF91089578941C92D3CF119684
:100270001C928C2F821BDF91CF9108957894E90115
:1002800080E0EECFDC018C918115A1F01196E09118
:100290002801F0E0E65DFE4F8083809128018F5FAA
:1002A000809328018091C10080628093C1008D916C
:1002B0008111EDCF0895CF93DF93FC0180818A30C7
:1002C00071F03196DB0121E831E0811541F0982F82
:1002D00092279D93813831F081918A30B1F7DF9177
:1002E000CF910895ED013A9381918A3071F7DF91B2
:1002F000CF910895FC01DB0180818A3081F0319635
:1003000091E8811561F0813031F089278D938191D9
:100310008A30B9F708959D9381918A3091F70895B5
:10032000CDB7DEB7CF5FD1090FB6F894DEBF0FBEF1
:10033000CDBF0E94640013E060E0CE0101960E94F0
:10034000DD0060E071E0CE0101960E945300811152
:100350000CC01A9589F781E090E0C150DF4F0FB6CD
:10036000F894DEBF0FBECDBF089585E091E00E94F6
:1003700042018FE39CE90197F1F700C0000010C033
:100380008354823020F08EE091E00E9442019FEF82
:1003900020E782E0915020408040E1F700C000005B
:1003A00060E0CE0101960E94DD00182F69E071E047
:1003B000CE0101960E94530081114EC089811230F6
:1003C000F9F6833499F0843411F73EC0CB010E94D2
:1003D0005B01CE0101960E9442019FEF20E782E07F
:1003E000915020408040E1F700C0000061E0CE0164
:1003F00001960E94DD00BE016F5F7F4F8F3F31F39A
:10040000CB010E945B01CE0101960E9442019FEF49
:1004100020E782E0915020408040E1F700C00000DA
:10042000B6CFBE016F5F7F4FCB010E947A01CE0134
:1004300001960E9442019FEF20E782E09150204008
:100440008040E1F700C0000061E0CE0101960E940B
:10045000DD008F3F31F3D7CF82E291E00E9442016D
:100460009FEF20E782E0915020408040E1F700C0FC
:0E0470000000F89480E090E070CFF894FFCF89
:10047E0031323334354F4B0A0053544F50004E4FE8
:10048E005420412056414C4944204F5054494F4E20
:08049E000A0046494E450A0020
:00000001FF
