:100000000C9434000C9451000C9451000C94510049
:100010000C9451000C9451000C9451000C9451001C
:100020000C9451000C9451000C9451000C9451000C
:100030000C9451000C9451000C9451000C945100FC
:100040000C9451000C9451000C94A8000C94710075
:100050000C9451000C9451000C9451000C945100DC
:100060000C9451000C94510011241FBECFEFD8E026
:10007000DEBFCDBF11E0A0E0B1E0E8EEF4E002C0E9
:1000800005900D92AC35B107D9F724E0ACE5B1E0AD
:1000900001C01D92A036B207E1F70E948E010C94B8
:1000A00072020C940000FB0120812A3059F0DC011F
:1000B000319603C021912A3029F08D918217D1F316
:1000C00080E0089581E008951092C50083E3809355
:1000D000C40086E08093C20088E98093C1007894D0
:1000E00008958F938FB78F939F93EF93FF93909182
:1000F0005D0280915C029817A1F0E0915D02F0E052
:10010000E25AFD4F80818093C60080915D028F5F2F
:1001100080935D02FF91EF919F918F918FBF8F919F
:1001200018958091C1008F7D8093C100F3CFE0913D
:100130005C02F0E0E25AFD4F808380915C028F5FA9
:1001400080935C02E1ECF0E080818062808308951E
:100150001F921FB61F9211248F939F93EF93FF93CB
:1001600080915F038F5F90915A02911529F09091D1
:100170005B029F5F90935B0290915E03981751F032
:10018000E0915F03F0E09091C600E05AFC4F90834D
:1001900080935F03FF91EF919F918F911F901FBEFE
:1001A0001F901895F89490915E0380915F039817C3
:1001B00069F0E0915E03F0E0E05AFC4F808190919D
:1001C0005E039F5F90935E0378940895789480E037
:1001D00008951F93CF93DF93AC01162F611134C0A4
:1001E00010925A028EEFDA01682F70E001C08895F4
:1001F00020915F0390915E032917C9F3F894209131
:100200005E0390915F03ED012196291709F440C028
:10021000E0915E03F0E0E05AFC4F208190915E0394
:100220009F5F90935E0378942C93111104C02A3041
:1002300091F12D3081F19E01241B350B26173707D4
:1002400014F5DE01D5CF889590915F0380915E0310
:100250009817C9F3F89490915E0380915F03981703
:1002600011F1E0915E03F0E0E05AFC4F8081909143
:100270005E039F5F90935E03789410935A028111FE
:10028000B2CFEA0180E01882DF91CF911F910895EB
:1002900078941C92D0CF11961C928C2F841BDF91E6
:1002A000CF911F910895789410935A02EA0180E04B
:1002B000EACFDC018C918115A1F01196E0915C02EE
:1002C000F0E0E25AFD4F808380915C028F5F809363
:1002D0005C028091C10080628093C1008D91811188
:1002E000EDCF0895FC01611551F0680F792F711D54
:1002F00091E88081892781936E177F07D1F7089550
:10030000FC01611551F0680F792F711D91E8808112
:10031000892781936E177F07D1F708950E946400A3
:10032000C0E060E08CE591E00E94E90060E071E0EF
:100330008CE591E00E945300811106C0CF5FC3306D
:1003400081F781E090E0089587E591E00E945901EE
:100350008FE39CE90197F1F700C0000010C08354BF
:10036000823020F08BE091E00E9459013FEF80E75E
:1003700092E0315080409040E1F700C0000060E022
:100380008CE591E00E94E900C82F66E071E08CE501
:1003900091E00E945300811186C080915C01C230BF
:1003A000F1F6833409F441C0843401F710925B0202
:1003B00012C06EEF8CE591E00E9480018CE591E027
:1003C0000E9459012FEF30E782E0215030408040F9
:1003D000E1F700C0000061E08CE591E00E94E900D7
:1003E0008E3F39F39FEF20E732E0915020403040BC
:1003F000E1F700C0000010925A0290915B02891749
:1004000008F462C0682F8CE591E00E9480018CE5C1
:1004100091E00E9459018FEF90E722E081509040D7
:100420002040E1F700C00000A1CF10925B0212C093
:100430006EEF8CE591E00E9472018CE591E00E94E4
:1004400059012FEF30E782E0215030408040E1F742
:1004500000C0000061E08CE591E00E94E9008E3F61
:1004600039F39FEF20E732E0915020403040E1F730
:1004700000C0000010925A0290915B02891720F18F
:10048000682F8CE591E00E9472018CE591E00E945A
:1004900059013FEF80E792E0315080409040E1F712
:1004A00000C0000063CF81E591E00E9459012FEF69
:1004B00030E782E0215030408040E1F700C000008A
:1004C000F89480E090E008958FE191E00E94590156
:1004D0008FEF90E722E0815090402040E1F700C08C
:0804E00000002FCFF894FFCFBC
:1004E80031323334350A53544F50004E4F54204163
:1004F8002056414C4944204F5054494F4E0A004819
:10050800414920494E53455249544F20504955209E
:1005180042595445204449205155454C4C492043A3
:10052800484520415645564920444554544F210AD0
:0C0538000046494E450A004F4B0A0000E7
:00000001FF
