:100000000C9434000C9451000C9451000C94510049
:100010000C9451000C9451000C9451000C9451001C
:100020000C9451000C9451000C9451000C9451000C
:100030000C9451000C9451000C9451000C945100FC
:100040000C9451000C9451000C94A8000C94710075
:100050000C9451000C9451000C9451000C945100DC
:100060000C9451000C94510011241FBECFEFD8E026
:10007000DEBFCDBF11E0A0E0B1E0E6EAF3E002C0F0
:1000800005900D92A832B107D9F723E0A8E2B1E0BC
:1000900001C01D92AC32B207E1F70E9453010C94EB
:1000A000D1010C940000FC0180818A3059F0DB0101
:1000B000319603C081918A3029F09D919817D1F330
:1000C00080E0089581E008951092C50083E3809355
:1000D000C40086E08093C20088E98093C1007894D0
:1000E00008958F938FB78F939F93EF93FF93909182
:1000F0002902809128029817A1F0E0912902F0E0EE
:10010000E45DFD4F80818093C600809129028F5F5E
:1001100080932902FF91EF919F918F918FBF8F91D3
:1001200018958091C1008F7D8093C100F3CFE0913D
:100130002802F0E0E45DFD4F8083809128028F5F0C
:1001400080932802E1ECF0E0808180628083089552
:100150008F938FB78F93EF93FF93E0912B02F0E093
:100160008091C600E45DFD4F808380912B028F5FFC
:1001700080932B02FF91EF918F918FBF8F911895F4
:1001800090912A0280912B02981761F0E0912A0247
:10019000F0E0E45DFD4F808190912A029F5F909393
:1001A0002A02089580E00895DC0120912B029091AD
:1001B0002A02291711F1AD014F5F5F4F20912A02EA
:1001C00090912B022917D9F0E0912A02F0E0E45D2A
:1001D000FD4F908120912A022F5F20932A029C9349
:1001E000911571F09A3081F09D3071F0DA01209113
:1001F0002B0290912A022913DECF8895D6CF1C922C
:10020000942F981B892F089511961C92119712967E
:100210009A2F981B892F0895DC018C918115A1F0EC
:100220001196E0912802F0E0E45DFD4F808380911B
:1002300028028F5F809328028091C10080628093A2
:10024000C1008D918111EDCF0895FC0180818A302C
:1002500099F04FE23DEA2FE58427839F912D1124E9
:100260009295969596959370929F80191124805E31
:10027000819380818A3081F70895CF93DF93FC01C9
:1002800080818A3069F0CFE5D0E02FE290E0CF9610
:10029000BE010E94A9018227819380818A30B1F733
:1002A000DF91CF9108950E946400C0E088E291E060
:1002B0000E94D40088E291E00E940C0160E071E0AD
:1002C00088E291E00E945300811106C0CF5FC330E5
:1002D00069F781E090E0089584E291E00E940C01CA
:1002E00088E291E00E94D400C82F65E071E088E2C6
:1002F00091E00E945300811125C0C33029F08AE0AB
:1003000091E00E940C01ECCF80912801833469F0C8
:1003100088E291E00E94D40088E291E00E943D01D1
:1003200088E291E00E940C01DBCF88E291E00E941C
:10033000D40088E291E00E94250188E291E00E94C9
:100340000C01CECF8EE191E00E940C0180E090E0A4
:10035000089597FB072E16F4009407D077FD09D077
:100360000E94BD0107FC05D03EF4909581959F4FFA
:100370000895709561957F4F0895AA1BBB1B51E1AD
:1003800007C0AA1FBB1FA617B70710F0A61BB70B05
:10039000881F991F5A95A9F780959095BC01CD01AA
:0603A0000895F894FFCF60
:1003A600313233343553544F50004E4F5420412090
:1003B60056414C4944204F5054494F4E0A00464935
:0803C6004E450A004F4B0A00EE
:00000001FF
