:100000000C9434000C9451000C9451000C94510049
:100010000C9451000C9451000C9451000C9451001C
:100020000C9451000C9451000C9451000C9451000C
:100030000C9451000C9451000C9451000C945100FC
:100040000C9451000C9451000C9478000C945100C5
:100050000C9451000C9451000C9451000C945100DC
:100060000C9451000C94510011241FBECFEFD8E026
:10007000DEBFCDBF11E0A0E0B1E0ECE8F3E002C0EC
:1000800005900D92A832B107D9F728E0A8E2B1E0B7
:1000900001C01D92AA3FB207E1F70E9446010C94ED
:1000A000C4010C940000FC0180818A3059F0DB010E
:1000B000319603C081918A3029F09D919817D1F330
:1000C00080E0089581E008951092C50083E3809355
:1000D000C40086E08093C20088E98093C1007894D0
:1000E00008959091C00095FFFCCF8093C6000895BD
:1000F0000F920FB60F921F9211245F936F937F930D
:100100008F939F93AF93BF93EF93FF93E0919508E5
:10011000F0E08091C600EA56F74F80838091950801
:1001200090E0019664E670E00E949C01809395083F
:10013000FF91EF91BF91AF919F918F917F916F91BF
:100140005F911F900F900FBE0F901895909194089B
:100150008091950820E0981781F0E0919408F0E0F4
:10016000EA56F74F20818091940890E0019664E66A
:1001700070E00E949C0180939408822F0895FF9262
:100180000F931F93CF93DF93F82EEC0104E610E05A
:100190002091950890919408291731F19E012F5FC5
:1001A0003F4F80919408909195088917F9F0E0915C
:1001B0009408F0E0EA56F74F40818091940890E06F
:1001C0000196B8010E949C018093940848834115D0
:1001D00071F04A30A1F04D3091F0E901209195087D
:1001E000909194082913DACF8895D2CF1882822F64
:1001F0008F19DF91CF911F910F91FF900895198270
:10020000CE0102968F19DF91CF911F910F91FF9030
:100210000895FC019081911551F031968091C000B4
:1002200085FFFCCF9093C60091919111F7CF08956F
:10023000FC0180818A3099F04FE23DEA2FE5842766
:10024000839F912D11249295969596959370929FE8
:1002500080191124805E819380818A3081F708950E
:10026000CF93DF93FC0180818A3069F0CFE5D0E045
:100270002FE290E0CF96BE010E949C0182278193DD
:1002800080818A30B1F7DF91CF9108950E94640098
:10029000C0E088E291E00E94BF0088E291E00E9405
:1002A000090160E071E088E291E00E945300811151
:1002B00006C0CF5FC33069F781E090E0089584E223
:1002C00091E00E94090188E291E00E94BF00C82FDE
:1002D00065E071E088E291E00E945300811125C041
:1002E000C33029F08AE091E00E940901ECCF8091AF
:1002F0002801833469F088E291E00E94BF0088E21F
:1003000091E00E94300188E291E00E940901DBCF78
:1003100088E291E00E94BF0088E291E00E9418010B
:1003200088E291E00E940901CECF8EE191E00E9427
:10033000090180E090E0089597FB072E16F40094E1
:1003400007D077FD09D00E94B00107FC05D03EF42C
:10035000909581959F4F0895709561957F4F089571
:10036000AA1BBB1B51E107C0AA1FBB1FA617B707DB
:1003700010F0A61BB70B881F991F5A95A9F78095F7
:0C0380009095BC01CD010895F894FFCFCA
:10038C00313233343553544F50004E4F54204120AA
:10039C0056414C4944204F5054494F4E0A0046494F
:0803AC004E450A004F4B0A0008
:00000001FF
