:100000000C9434000C9451000C9451000C94510049
:100010000C9451000C9451000C9451000C9451001C
:100020000C9451000C9451000C9451000C9451000C
:100030000C9451000C9451000C9451000C945100FC
:100040000C9451000C9451000C94A8000C94710075
:100050000C9451000C9451000C9451000C945100DC
:100060000C9451000C94510011241FBECFEFD8E026
:10007000DEBFCDBF11E0A0E0B1E0E4E8F4E002C0F3
:1000800005900D92AA36B107D9F724E0AAE6B1E0AF
:1000900001C01D92AE36B207E1F70E948B010C94AD
:1000A00040020C940000FB0120812A3059F0DC0151
:1000B000319603C021912A3029F08D918217D1F316
:1000C00080E0089581E008951092C50083E3809355
:1000D000C40086E08093C20088E98093C1007894D0
:1000E00008958F938FB78F939F93EF93FF93909182
:1000F0006B0280916A029817A1F0E0916B02F0E028
:10010000E459FD4F80818093C60080916B028F5F20
:1001100080936B02FF91EF919F918F918FBF8F9191
:1001200018958091C1008F7D8093C100F3CFE0913D
:100130006A02F0E0E459FD4F808380916A028F5F8C
:1001400080936A02E1ECF0E0808180628083089510
:100150001F921FB61F9211248F939F93EF93FF93CB
:1001600080916D038F5F90916802911529F09091B5
:1001700069029F5F9093690290916C03981751F008
:10018000E0916D03F0E09091C600E259FC4F90833E
:1001900080936D03FF91EF919F918F911F901FBEF0
:1001A0001F901895F89490916C0380916D039817A7
:1001B00069F0E0916C03F0E0E259FC4F808190918E
:1001C0006C039F5F90936C0378940895789480E01B
:1001D00008951F93CF93DF93AC01162F611131C0A7
:1001E000109268028EEFEA01682F70E001C08895D6
:1001F00020916D0390916C032917C9F3F894209115
:100200006C0390916D03DE011196291709F43DC02E
:10021000E0916C03F0E0E259FC4F908120916C0377
:100220002F5F20936C0378949883912B911589F11B
:100230009D01241B350B2617370714F5ED01D8CF88
:10024000889590916D0380916C039817C9F3F89489
:1002500090916C0380916D03981711F1E0916C03FC
:10026000F0E0E259FC4F808190916C039F5F909386
:100270006C037894109368028111B5CFDA0180E0A5
:100280001C92DF91CF911F910895789418821111DB
:10029000CFCF1C928A2F841BDF91CF911F9108959D
:1002A000789410936802DA0180E0EACFDC018C9147
:1002B0008115A1F01196E0916A02F0E0E459FD4F3A
:1002C000808380916A028F5F80936A028091C1006F
:1002D00080628093C1008D918111EDCF0895FC0162
:1002E000611551F0680F792F711D91E88081892780
:1002F00081936E177F07D1F70895FC01611551F0C6
:10030000680F792F711D91E88081892781936E177D
:100310007F07D1F708950E946400C0E060E08AE69C
:1003200091E00E94E90060E071E08AE691E00E94BD
:100330005300811112C0D1E0DC0F86E091E00E94F1
:10034000560181E38C0F0E9497008AE00E9497007B
:10035000D33009F492C0CD2FE1CF85E691E00E9421
:1003600056018FE39CE90197F1F700C000000DC032
:1003700089E191E00E9456012FEF80E792E0215041
:1003800080409040E1F700C0000060E08AE691E024
:100390000E94E900C82F64E171E08AE691E00E94C2
:1003A000530081114CC0C13019F780916A019DEB57
:1003B000980F9230E8F61092690261E0833431F1CF
:1003C0008AE691E00E94E900682F2FEF80E792E033
:1003D000215080409040E1F700C000001092680278
:1003E000809169026817E0F18AE691E00E947D0140
:1003F0008AE691E00E9456012FEF80E792E02150BB
:1004000080409040E1F700C00000B6CF8AE691E05E
:100410000E94E900682F2FEF80E792E02150804092
:100420009040E1F700C000001092680280916902DC
:100430006817B0F08AE691E00E946F01D9CF8FE58E
:1004400091E00E9456012FEF80E792E0215080401A
:100450009040E1F700C00000F89480E090E008953B
:100460008DE291E00E9456012FEF80E792E021504B
:1004700080409040E1F700C0000081E090E00895E6
:04048000F894FFCF1E
:1004840031323334350054656E74617469766F208B
:100494006E3A200053544F50004E4F542041205682
:1004A400414C4944204F5054494F4E0A0048414959
:1004B40020494E53455249544F20504955204259E2
:1004C4005445204449205155454C4C492043484506
:1004D40020415645564920444554544F210A00466C
:0A04E400494E450A004F4B0A000084
:00000001FF
