:100000000C9434000C9451000C9451000C94510049
:100010000C9451000C9451000C9451000C9451001C
:100020000C9451000C9451000C9451000C9451000C
:100030000C9451000C9451000C9451000C945100FC
:100040000C9451000C9451000C9451000C945100EC
:100050000C9451000C9451000C9451000C945100DC
:100060000C9451000C94510011241FBECFEFD8E026
:10007000DEBFCDBF11E0A0E0B1E0E2EBF1E002C0F5
:1000800005900D92A031B107D9F722E0A0E1B1E0CF
:1000900001C01D92A031B207E1F70E94B0000C949C
:1000A000D7000C940000DC01FB018C918A3061F0D8
:1000B000119604C031968D918A3031F09081981755
:1000C000C9F381E090E0089585E091E00E94A100ED
:1000D00080E090E008951092C50083E38093C4000F
:1000E00086E08093C20088E98093C10008959091D2
:1000F000C00095FFFCCF8093C60008958091C0009A
:1001000087FFFCCF8091C60008959C019091C000AC
:1001100097FFFCCF9091C600F9019193911569F07A
:100120009A3021F09D3011F09F01F0CF10822E5FA8
:100130003F4F922F981B892F08959E2F981B892F30
:100140000895FC019081911551F031968091C00085
:1001500085FFFCCF9093C60091919111F7CF089540
:100160000E946B00C3E080E191E00E9485008091D5
:1001700010018A3089F0A1E1B1E0E0E0F1E004C0D3
:1001800031968D918A3041F090819817C9F3CA95C4
:1001900051F781E090E0089585E091E00E94A10090
:1001A0008CE091E00E94A100CA95E9F6F2CFF894A4
:0201B000FFCF7F
:1001B2003132333435414F4F4F4F4F004F4B0000D8
:00000001FF
