:100000000C9434000C9451000C9451000C94510049
:100010000C9451000C9451000C9451000C9451001C
:100020000C9451000C9451000C9451000C9451000C
:100030000C9451000C9451000C9451000C945100FC
:100040000C9451000C9451000C9451000C945100EC
:100050000C9451000C9451000C9451000C945100DC
:100060000C9451000C94510011241FBECFEFD8E026
:10007000DEBFCDBF11E0A0E0B1E0EAE2F2E002C0F5
:1000800005900D92AE31B107D9F728E0AEE1B1E0AD
:1000900001C01D92AA38B207E1F70E94C2000C9479
:1000A00013010C940000DC01FB018C918A3061F09B
:1000B000119604C031968D918A3031F09081981755
:1000C000C9F381E090E0089580E090E008951092F7
:1000D000C50083E38093C40086E08093C20088E972
:1000E0008093C10008959091C00095FFFCCF80934C
:1000F000C60008958091C00087FFFCCF8091C600A4
:1001000008959C019091C00097FFFCCF9091C6008C
:10011000F9019193911569F09A3021F09D3011F019
:100120009F01F0CF10822E5F3F4F922F981B892F97
:1001300008959E2F981B892F0895FC019081911599
:1001400051F031968091C00085FFFCCF9093C6009E
:1001500091919111F7CF0895FC0180818A3031F09F
:100160009FEA8927819380818A30D9F70895FC011D
:1001700080818A3031F09FEA8927819380818A309B
:10018000D9F708950E946700C0E08EE191E00E94D7
:10019000810080911E018A3091F0AFE1B1E0E0E092
:1001A000F1E004C031968D918A3049F09081981722
:1001B000C9F3CF5FC33049F781E090E0089585E04F
:1001C00091E00E949D008EE191E00E9481008330C9
:1001D00061F00E94730089E091E00E949D008EE131
:1001E00091E00E9481008330A1F780911E01833449
:1001F00069F08EE191E00E9481008EE191E00E9421
:10020000B7008EE191E00E949D00DDCF8EE191E08C
:100210000E9481008EE191E00E94AC008EE191E0AD
:0A0220000E949D00D0CFF894FFCF9C
:10022A0031323334354F4B0A004E4F542041205659
:0E023A00414C4944204F5054494F4E0A000099
:00000001FF
