:100000000C9434000C9451000C9451000C94510049
:100010000C9451000C9451000C9451000C9451001C
:100020000C9451000C9451000C9451000C9451000C
:100030000C9451000C9451000C9451000C945100FC
:100040000C9451000C9451000C94A8000C94710075
:100050000C9451000C9451000C9451000C945100DC
:100060000C9451000C94510011241FBECFEFD8E026
:10007000DEBFCDBF11E0A0E0B1E0E8E8F4E002C0EF
:1000800005900D92A832B107D9F725E0A8E2B1E0BA
:1000900001C01D92AE32B207E1F70E9451010C94EB
:1000A00042020C940000FC0180818A3059F0DB018F
:1000B000319603C081918A3029F09D919817D1F330
:1000C00080E0089581E008951092C50083E3809355
:1000D000C40086E08093C20088E98093C1007894D0
:1000E00008958F938FB78F939F93EF93FF93909182
:1000F0002B0380912A039817A1F0E0912B03F0E0E5
:10010000E45DFC4F80818093C60080912B038F5F5C
:1001100080932B03FF91EF919F918F918FBF8F91D0
:1001200018958091C1008F7D8093C100F3CFE0913D
:100130002A03F0E0E45DFC4F808380912A038F5F07
:1001400080932A03E1ECF0E080818062808308954F
:100150008F938FB78F939F93EF93FF9380912D048D
:100160008F5F90912C04981751F0E0912D04F0E0EE
:100170009091C600E25DFB4F908380932D04FF9128
:10018000EF919F918F918FBF8F911895F8949091D7
:100190002C0480912D04981769F0E0912C04F0E074
:1001A000E25DFB4F808190912C049F5F90932C0423
:1001B00078940895789480E00895CF93DF939C011C
:1001C000DC0101C0889590912D0480912C04981732
:1001D000C9F3F89490912C0480912D04ED0121969F
:1001E0009817C9F0E0912C04F0E0E25DFB4F90819C
:1001F00080912C048F5F80932C0478949C939A3088
:10020000B1F09D30A1F0CE01821B930B843C91058F
:1002100054F4DE01D8CF78941C92CE01821B930B4C
:10022000843C9105B4F31882DF91CF910895119623
:100230001C928C2F821BDF91CF910895DC018C9151
:100240008115A1F01196E0912A03F0E0E45DFC4FE6
:10025000808380912A038F5F80932A038091C1005D
:1002600080628093C1008D918111EDCF0895FC01D2
:10027000DB0180818A3039F0319691E889278D93AE
:1002800081918A30D9F70895FC01DB0180818A30A1
:1002900039F0319691E889278D9381918A30D9F789
:1002A00008950E946400D0E08091290390E0885D69
:1002B0009D4F0E94DD00C82F90912903892F90E067
:1002C000885D9D4F0E941E0190912903892F90E027
:1002D00060E071E0885D9D4F0E94530081110BC06A
:1002E000809129038C0F80932903DF5FD330E1F6DF
:1002F00081E090E0089584E291E00E941E018FE386
:100300009CE90197F1F700C000001DC0E0912903AE
:10031000F0E0E85DFD4F8081833459F1E0912903DD
:10032000F0E0E85DFD4F8081843419F18AE091E0CE
:100330000E941E012FEF80E792E021508040904004
:10034000E1F700C000008091290390E0885D9D4F97
:100350000E94DD00C82F90912903892F90E065E06D
:1003600071E0885D9D4F0E94530081117BC0C330B6
:1003700069F6E0912903F0E0E85DFD4F8081833468
:1003800039F560C0609128038091290370E0685DB1
:100390007E4F90E0885D9D4F0E944401809128032C
:1003A00090E0885D9E4F0E941E01809129038C532E
:1003B00080932903809128038C53809328032FEF87
:1003C00080E792E0215080409040E1F700C00000BB
:1003D0008091290390E0885D9D4F0E94DD00C82F29
:1003E000843C81F28091280390E0885D9E4F0E94BA
:1003F0001E01809129038C0F80932903809128038B
:100400008C0F809328032FEF80E792E021508040EB
:100410009040E1F700C000008DCF0E941E01809146
:1004200029038C5380932903809128038C53809354
:1004300028032FEF80E792E0215080409040E1F7C1
:1004400000C000008091290390E0885D9D4F0E94CC
:10045000DD00C82F8091290390E0885D9D4FC43C4A
:10046000E1F2C5CF8EE191E00E941E012FEF80E7FF
:1004700092E0215080409040E1F700C0000080E011
:0804800090E00895F894FFCF0D
:10048800313233343553544F50004E4F54204120AD
:1004980056414C4944204F5054494F4E0A00464952
:0804A8004E450A004F4B0A000B
:00000001FF
