:100000000C9434000C9451000C9451000C94510049
:100010000C9451000C9451000C9451000C9451001C
:100020000C9451000C9451000C9451000C9451000C
:100030000C9451000C9451000C9451000C945100FC
:100040000C9451000C9451000C94A8000C94710075
:100050000C9451000C9451000C9451000C945100DC
:100060000C9451000C94510011241FBECFEFD8E026
:10007000DEBFCDBF11E0A0E0B1E0E2E6F4E002C0F7
:1000800005900D92AC35B107D9F724E0ACE5B1E0AD
:1000900001C01D92AF35B207E1F70E9477010C94C1
:1000A0002F020C940000FB0120812A3059F0DC0162
:1000B000319603C021912A3029F08D918217D1F316
:1000C00080E0089581E008951092C50083E3809355
:1000D000C40086E08093C20088E98093C1007894D0
:1000E00008958F938FB78F939F93EF93FF93909182
:1000F0005C0280915B029817A1F0E0915C02F0E055
:10010000E35AFD4F80818093C60080915C028F5F2F
:1001100080935C02FF91EF919F918F918FBF8F91A0
:1001200018958091C1008F7D8093C100F3CFE0913D
:100130005B02F0E0E35AFD4F808380915B028F5FAA
:1001400080935B02E1ECF0E080818062808308951F
:100150008F938FB78F939F93EF93FF9380915E035D
:100160008F5F90915D03981751F0E0915E03F0E08E
:100170009091C600E15AFC4F908380935E03FF91FB
:10018000EF919F918F918FBF8F911895F8949091D7
:100190005D0380915E03981769F0E0915D03F0E0E4
:1001A000E15AFC4F808190915D039F5F90935D03C6
:1001B00078940895789480E00895CF93DF939C011C
:1001C000611131C04FEFD90150E001C08895909185
:1001D0005E0380915D039817C9F3F89490915D03D5
:1001E00080915E03ED012196981709F43DC0E091DE
:1001F0005D03F0E0E15AFC4F908180915D038F5FD9
:1002000080935D0378949C93611104C09A3079F1D6
:100210009D3069F1CE01821B930B8417950704F57D
:10022000DE01D5CF889590915E0380915D0398178C
:10023000C9F3F89490915D0380915E039817F1F0F3
:10024000E0915D03F0E0E15AFC4F408180915D0355
:100250008F5F80935D0378944111B5CFE90180E011
:100260001882DF91CF91089578941C92D3CF119684
:100270001C928C2F821BDF91CF9108957894E90115
:1002800080E0EECFDC018C918115A1F01196E09118
:100290005B02F0E0E35AFD4F808380915B028F5F49
:1002A00080935B028091C10080628093C1008D9138
:1002B0008111EDCF0895FC01611551F0680F792F80
:1002C000711D91E88081892781936E177F07D1F78F
:1002D0000895FC01611551F0680F792F711D91E8A7
:1002E0008081892781936E177F07D1F708950E9437
:1002F0006400C0E060E08CE591E00E94DD0060E019
:1003000071E08CE591E00E945300811106C0CF5F3F
:10031000C33081F781E090E0089587E591E00E9485
:1003200042018FE39CE90197F1F700C0000060E013
:100330008CE591E00E94DD00C82F66E071E08CE55D
:1003400091E00E945300811179C080915C01C2301C
:10035000B1F08354823008F04AC08FE191E00E94EE
:10036000420181E591E00E9442012FEF81EE94E08D
:10037000215080409040E1F700C00000CBCF833493
:1003800099F03AC06FEF8CE591E00E945B018CE53B
:1003900091E00E9442012FEF80E792E021508040DF
:1003A0009040E1F700C0000061E08CE591E00E9420
:1003B000DD008F3F39F3682F8CE591E00E945B01EF
:1003C0008CE591E00E9442012FEF80E792E02150FE
:1003D00080409040E1F700C000002FEF80E792E0FE
:1003E000215080409040E1F700C00000A0CF8BE09A
:1003F00091E00E944201F1CF843499F0AECF6FEFCB
:100400008CE591E00E9469018CE591E00E94420137
:100410002FEF80E792E0215080409040E1F700C04C
:10042000000061E08CE591E00E94DD008F3F39F330
:10043000682F8CE591E00E946901C2CF81E591E0CF
:100440000E9442012FEF80E792E0215080409040CF
:10045000E1F700C00000F89480E090E00895F8947F
:02046000FFCFCC
:1004620031323334350A53544F50004E4F542041E9
:100472002056414C4944204F5054494F4E0A00489F
:10048200414920494E53455249544F205049552025
:1004920042595445204449205155454C4C4920432A
:1004A200484520415645564920444554544F210A57
:0C04B2000046494E450A004F4B0A00006E
:00000001FF
