:100000000C9434000C9451000C9451000C94510049
:100010000C9451000C9451000C9451000C9451001C
:100020000C9451000C9451000C9451000C9451000C
:100030000C9451000C9451000C9451000C945100FC
:100040000C9451000C9451000C94BE000C946E0062
:100050000C9451000C9451000C9451000C945100DC
:100060000C9451000C94510011241FBECFEFD8E026
:10007000DEBFCDBF11E0A0E0B1E0E2ECF6E002C0EF
:1000800005900D92A235B107D9F724E0A2E5B1E0C1
:1000900001C01D92A535B207E1F70E942B020C9416
:1000A0005F030C940000DC01FB018D9191918111A3
:1000B00004C081E0911103C008958917B1F380E075
:1000C00008951092C50083E38093C40086E0809376
:1000D000C20088E98093C100789408950F920FB60A
:1000E0000F921F9211245F936F937F938F939F932F
:1000F000AF93BF93EF93FF9390915402809153027B
:10010000981701F1E0915402F0E0EB5AFD4F808125
:100110008093C6008091540290E001966FEF70E0EA
:100120000E94370380935402FF91EF91BF91AF91EA
:100130009F918F917F916F915F911F900F900FBE54
:100140000F9018958091C1008F7D8093C100ECCFF6
:10015000E0915302F0E0EB5AFD4F8083809153020F
:1001600090E001966FEF70E00E9437038093530296
:10017000E1ECF0E080818062808308950F920FB6F9
:100180000F921F9211242F935F936F937F938F93FE
:100190009F93AF93BF93EF93FF938091550390E0AC
:1001A00001966FEF70E00E943703982F2091510263
:1001B000211529F0209152022F5F209352022091A5
:1001C0005403291751F0E0915503F0E09091C600D7
:1001D000EA5AFC4F908380935503FF91EF91BF91B2
:1001E000AF919F918F917F916F915F912F911F9010
:1001F0000F900FBE0F901895F89490915403809132
:100200005503981799F0E0915403F0E0EA5AFC4F37
:1002100020818091540390E001966FEF70E00E947E
:100220003703809354037894822F0895789420E0C4
:10023000822F0895CF92DF92EF92FF920F931F9338
:10024000CF93DF939C01462F61113CC01092510265
:10025000DD24DA94F9010FEF10E0CD2DD0E001C0DC
:10026000889590915503809154039817C9F3F89499
:1002700090915403809155037F015FEFE51AF50AD1
:10028000981709F462C0A0915403B0E0AA5ABC4F79
:10029000CC908091540390E00196B8010E943703FE
:1002A000809354037894C082C42AC11409F451C0C5
:1002B000C701821B930B8C179D070CF07CC0F701C4
:1002C000D0CF889590915503809154039817C9F326
:1002D000F8949091540380915503981709F447C0FE
:1002E000E0915403F0E0EA5AFC4FD080809154032F
:1002F00090E00196CFEFD0E0BE010E9437038093DB
:1003000054037894E0915302F0E0EB5AFD4F8FE4F0
:1003100080838091530290E00196BE010E943703D2
:10032000809353028091C10080628093C100EFEFFF
:10033000F0E752E0E150F0405040E1F700C000002B
:1003400040935102D11086CF34C07894108241116D
:10035000AFCFF7011082DE2CD21A8D2DDF91CF9115
:100360001F910F91FF90EF90DF90CF9008957894B8
:10037000E0915302F0E0EB5AFD4F8FE480838091CF
:10038000530290E001966FEF70E00E943703809374
:1003900053028091C10080628093C1005FEF80E7CB
:1003A00092E0515080409040E1F700C0000040933F
:1003B00051027901D12CF7011082CFCFEF92FF9239
:1003C0000F931F93CF93DF939C01062F10E06115CD
:1003D000F9F0EC01EE24EA94F12C8991E0915302BA
:1003E000F0E0EB5AFD4F80838091530290E001963C
:1003F000B7010E943703809353028091C10080624D
:100400008093C100CE01821B930B801791072CF3C0
:10041000DF91CF911F910F91FF90EF900895FC0114
:10042000611551F0680F792F711D91E8808189273E
:1004300081936E177F07D1F70895FC01611551F084
:10044000680F792F711D91E88081892781936E173C
:100450007F07D1F708950E946100C0E060E082E567
:1004600091E00E941A0160E071E082E591E00E9453
:10047000530081110CC08EE40E94A80080E00E940D
:10048000A800CF5FC33051F781E090E0089562E0AB
:100490008FE491E00E94DE0180E00E94A8008FE3DB
:1004A0009CE90197F1F700C000000FC0833409F404
:1004B0007CC0C23009F448C02FEF80E792E02150A1
:1004C00080409040E1F700C0000060E082E591E0EC
:1004D0000E941A01C82F66E071E082E591E00E9457
:1004E00053008111A8C0C13039F3809152019DEBB6
:1004F000980F9230D8F262E18BE091E00E94DE0129
:10050000DBCF2FEF80E792E0215080409040E1F771
:1005100000C0000010925102809152026FEF82E5FC
:1005200091E00E941D026FEF82E591E00E94DE01E2
:1005300081E40E94A8002FEF80E792E021508040E4
:100540009040E1F700C000001092520261E082E5A5
:1005500091E00E941A01C82F8F3F99F22FEF80E798
:1005600092E0215080409040E1F700C000001092DE
:10057000510280915202C81708F46AC06C2F82E5BC
:1005800091E00E941D026C2F82E591E00E94DE0145
:1005900081E40E94A8002FEF80E792E02150804084
:1005A0009040E1F700C0000087CFC23009F084CF4F
:1005B00023C02FEF80E792E0215080409040E1F788
:1005C00000C0000010925102809152026FEF82E54C
:1005D00091E00E940F026FEF82E591E00E94DE0140
:1005E00081E40E94A8002FEF80E792E02150804034
:1005F0009040E1F700C000001092520261E082E5F5
:1006000091E00E941A01C82F8F3F99F22FEF80E7E7
:1006100092E0215080409040E1F700C0000010922D
:10062000510280915202C81798F06C2F82E591E038
:100630000E940F02A8CF2FEF80E792E02150804068
:100640009040E1F700C00000F89480E090E0089549
:1006500060E38EE191E00E94DE012FEF80E792E0FF
:10066000215080409040E1F700C000000DCF97FB83
:10067000072E16F4009407D077FD09D00E944B0393
:1006800007FC05D03EF4909581959F4F0895709595
:1006900061957F4F0895AA1BBB1B51E107C0AA1F9C
:1006A000BB1FA617B70710F0A61BB70B881F991F13
:1006B0005A95A9F780959095BC01CD010895F894BD
:0206C000FFCF6A
:1006C20031323334350053544F50004E4F54204191
:1006D2002056414C4944204F5054494F4E00484106
:1006E2004920494E53455249544F205049552042C2
:1006F200595445204449205155454C4C49204348C2
:100702004520415645564920444554544F21004FF7
:020712004B009A
:00000001FF
