:100000000C9434000C9451000C9451000C94510049
:100010000C9451000C9451000C9451000C9451001C
:100020000C9451000C9451000C9451000C9451000C
:100030000C9451000C9451000C9451000C945100FC
:100040000C9451000C9451000C9451000C945100EC
:100050000C9451000C9451000C9451000C945100DC
:100060000C9451000C94510011241FBECFEFD8E026
:10007000DEBFCDBF11E0A0E0B1E0E6EAF2E002C0F1
:1000800005900D92A832B107D9F728E0A8E2B1E0B7
:1000900001C01D92A439B207E1F70E94D7000C9469
:1000A00051010C940000FC0180818A3059F0DB0181
:1000B000319603C081918A3029F09D919817D1F330
:1000C00080E0089581E008951092C50083E3809355
:1000D000C40086E08093C20088E98093C10008953F
:1000E0009091C00095FFFCCF8093C6000895809149
:1000F000C00087FFFCCF8091C60008959C019091BD
:10010000C00097FFFCCF9091C600F9019193911523
:1001100069F09A3021F09D3011F09F01F0CF1082EC
:100120002E5F3F4F922F981B892F08959E2F981B6B
:10013000892F0895FC019081911551F0319680919D
:10014000C00085FFFCCF9093C60091919111F7CF2D
:100150000895FC0180818A3099F04FE23DEA2FE555
:100160008427839F912D112492959695969593704F
:10017000929F80191124805E819380818A3081F75B
:100180000895CF93DF93FC0180818A3069F0CFE539
:10019000D0E02FE290E0CF96BE010E942901822795
:1001A000819380818A30B1F7DF91CF9108950E94C9
:1001B0006400C0E088E291E00E947E0060E071E0AF
:1001C00088E291E00E945300811106C0CF5FC330E6
:1001D00089F781E090E0089584E291E00E949A001E
:1001E00088E291E00E947E00C82F65E071E088E21D
:1001F00091E00E945300811125C0C33029F080E1B5
:1002000091E00E949A00ECCF80912801833469F03C
:1002100088E291E00E947E0088E291E00E94C100A5
:1002200088E291E00E949A00DBCF88E291E00E9490
:100230007E0088E291E00E94A90088E291E00E949D
:100240009A00CECF8AE091E00E949A0080E090E090
:10025000089597FB072E16F4009407D077FD09D078
:100260000E943D0107FC05D03EF4909581959F4F7B
:100270000895709561957F4F0895AA1BBB1B51E1AE
:1002800007C0AA1FBB1FA617B70710F0A61BB70B06
:10029000881F991F5A95A9F780959095BC01CD01AB
:0602A0000895F894FFCF61
:1002A600313233343553544F500046494E450A00D7
:1002B6004E4F5420412056414C4944204F505449FA
:0802C6004F4E0A004F4B0A00E5
:00000001FF
