:100000000C9434000C9451000C9451000C94510049
:100010000C9451000C9451000C9451000C9451001C
:100020000C9451000C9451000C9451000C9451000C
:100030000C9451000C9451000C9451000C945100FC
:100040000C9451000C9451000C94A8000C94710075
:100050000C9451000C9451000C9451000C945100DC
:100060000C9451000C94510011241FBECFEFD8E026
:10007000DEBFCDBF11E0A0E0B1E0E6EAF4E002C0EF
:1000800005900D92AA35B107D9F723E0AAE5B1E0B2
:1000900001C01D92AE35B207E1F70E9490010C94A9
:1000A00051020C940000FC0180818A3059F0DB0180
:1000B000319603C081918A3029F09D919817D1F330
:1000C00080E0089581E008951092C50083E3809355
:1000D000C40086E08093C20088E98093C1007894D0
:1000E00008958F938FB78F939F93EF93FF93909182
:1000F0005B0180915A019817A1F0E0915B01F0E05B
:10010000E45AFE4F80818093C60080915B018F5F2F
:1001100080935B01FF91EF919F918F918FBF8F91A2
:1001200018958091C1008F7D8093C100F3CFE0913D
:100130005A01F0E0E45AFE4F808380915A018F5FAC
:1001400080935A01E1ECF0E0808180628083089521
:100150008F938FB78F939F93EF93FF9380915D025F
:100160008F5F90915C02981751F0E0915D02F0E092
:100170009091C600E25AFD4F908380935D02FF91FB
:10018000EF919F918F918FBF8F911895F8949091D7
:100190005C0280915D02981769F0E0915C02F0E0EA
:1001A000E25AFD4F808190915C029F5F90935C02C8
:1001B00078940895789480E00895CF93DF939C011C
:1001C000611131C04FEFD90150E001C08895909185
:1001D0005D0280915C029817C9F3F89490915C02DB
:1001E00080915D02ED012196981709F43DC0E091E0
:1001F0005C02F0E0E25AFD4F908180915C028F5FDB
:1002000080935C0278949C93611104C09A3079F1D8
:100210009D3069F1CE01821B930B8417950704F57D
:10022000DE01D5CF889590915D0280915C02981790
:10023000C9F3F89490915C0280915D029817F1F0F7
:10024000E0915C02F0E0E25AFD4F408180915C0257
:100250008F5F80935C0278944111B5CFE90180E013
:100260001882DF91CF91089578941C92D3CF119684
:100270001C928C2F821BDF91CF9108957894E90115
:1002800080E0EECFDC018C918115A1F01196E09118
:100290005A01F0E0E45AFE4F808380915A018F5F4B
:1002A00080935A018091C10080628093C1008D913A
:1002B0008111EDCF0895CF93DF93FC0180818A30C7
:1002C00071F03196DB0121E831E0811541F0982F82
:1002D00092279D93813831F081918A30B1F7DF9177
:1002E000CF910895ED013A9381918A3071F7DF91B2
:1002F000CF910895FC01DB0180818A3081F0319635
:1003000091E8811561F0813031F089278D938191D9
:100310008A30B9F708959D9381918A3091F70895B5
:10032000CDB7DEB7CF5FD1090FB6F894DEBF0FBEF1
:10033000CDBF0E94640013E060E0CE0101960E94F0
:10034000DD0060E071E0CE0101960E945300811152
:100350000CC01A9589F781E090E0C150DF4F0FB6CD
:10036000F894DEBF0FBECDBF089585E091E00E94F6
:1003700042018FE39CE90197F1F700C0000060E0C3
:10038000CE0101960E94DD00182F69E071E0CE01D8
:1003900001960E945300811173C089811230B1F01F
:1003A0008354823008F049C082E291E00E94420109
:1003B00084E591E00E9442019FEF20E782E09150A6
:1003C00020408040E1F700C00000C5CF833489F0B1
:1003D00039C0CB010E945B01CE0101960E9442010F
:1003E0009FEF20E782E0915020408040E1F700C07D
:1003F000000061E0CE0101960E94DD00BE016F5F4A
:100400007F4F8F3F31F3CB010E945B01CE010196FC
:100410000E9442019FEF20E782E0915020408040FF
:10042000E1F700C000009FEF20E782E091502040FC
:100430008040E1F700C00000A2CF8EE091E00E9472
:100440004201F1CF8434A1F0AFCFBE016F5F7F4F87
:10045000CB010E947A01CE0101960E9442019FEFDA
:1004600020E782E0915020408040E1F700C000008A
:1004700061E0CE0101960E94DD008F3F31F3C6CFCF
:1004800084E591E00E9442019FEF20E782E09150D5
:1004900020408040E1F700C00000F89480E090E048
:0604A0005CCFF894FFCFD1
:1004A60031323334354F4B0A0053544F50004E4FC0
:1004B6005420412056414C4944204F5054494F4EF8
:1004C6000A0048414920494E53455249544F20504D
:1004D60049552042595445204449205155454C4CD4
:1004E60049204348452041564556492044455454E1
:0A04F6004F210A0046494E450A0056
:00000001FF
